{
  "contractName": "Pixel4Impact",
  "abi": [
    {
      "constant": true,
      "inputs": [],
      "name": "name",
      "outputs": [
        {
          "name": "",
          "type": "string"
        }
      ],
      "payable": false,
      "stateMutability": "view",
      "type": "function"
    },
    {
      "constant": true,
      "inputs": [
        {
          "name": "_tokenId",
          "type": "uint256"
        }
      ],
      "name": "getApproved",
      "outputs": [
        {
          "name": "",
          "type": "address"
        }
      ],
      "payable": false,
      "stateMutability": "view",
      "type": "function"
    },
    {
      "constant": false,
      "inputs": [
        {
          "name": "_to",
          "type": "address"
        },
        {
          "name": "_tokenId",
          "type": "uint256"
        }
      ],
      "name": "approve",
      "outputs": [],
      "payable": false,
      "stateMutability": "nonpayable",
      "type": "function"
    },
    {
      "constant": true,
      "inputs": [],
      "name": "totalSupply",
      "outputs": [
        {
          "name": "",
          "type": "uint256"
        }
      ],
      "payable": false,
      "stateMutability": "view",
      "type": "function"
    },
    {
      "constant": true,
      "inputs": [],
      "name": "minDonation",
      "outputs": [
        {
          "name": "",
          "type": "uint256"
        }
      ],
      "payable": false,
      "stateMutability": "view",
      "type": "function"
    },
    {
      "constant": false,
      "inputs": [
        {
          "name": "_from",
          "type": "address"
        },
        {
          "name": "_to",
          "type": "address"
        },
        {
          "name": "_tokenId",
          "type": "uint256"
        }
      ],
      "name": "transferFrom",
      "outputs": [],
      "payable": false,
      "stateMutability": "nonpayable",
      "type": "function"
    },
    {
      "constant": true,
      "inputs": [
        {
          "name": "_owner",
          "type": "address"
        },
        {
          "name": "_index",
          "type": "uint256"
        }
      ],
      "name": "tokenOfOwnerByIndex",
      "outputs": [
        {
          "name": "",
          "type": "uint256"
        }
      ],
      "payable": false,
      "stateMutability": "view",
      "type": "function"
    },
    {
      "constant": false,
      "inputs": [
        {
          "name": "_from",
          "type": "address"
        },
        {
          "name": "_to",
          "type": "address"
        },
        {
          "name": "_tokenId",
          "type": "uint256"
        }
      ],
      "name": "safeTransferFrom",
      "outputs": [],
      "payable": false,
      "stateMutability": "nonpayable",
      "type": "function"
    },
    {
      "constant": true,
      "inputs": [
        {
          "name": "_tokenId",
          "type": "uint256"
        }
      ],
      "name": "exists",
      "outputs": [
        {
          "name": "",
          "type": "bool"
        }
      ],
      "payable": false,
      "stateMutability": "view",
      "type": "function"
    },
    {
      "constant": true,
      "inputs": [
        {
          "name": "_index",
          "type": "uint256"
        }
      ],
      "name": "tokenByIndex",
      "outputs": [
        {
          "name": "",
          "type": "uint256"
        }
      ],
      "payable": false,
      "stateMutability": "view",
      "type": "function"
    },
    {
      "constant": true,
      "inputs": [
        {
          "name": "_tokenId",
          "type": "uint256"
        }
      ],
      "name": "ownerOf",
      "outputs": [
        {
          "name": "",
          "type": "address"
        }
      ],
      "payable": false,
      "stateMutability": "view",
      "type": "function"
    },
    {
      "constant": true,
      "inputs": [],
      "name": "yPixels",
      "outputs": [
        {
          "name": "",
          "type": "uint16"
        }
      ],
      "payable": false,
      "stateMutability": "view",
      "type": "function"
    },
    {
      "constant": true,
      "inputs": [
        {
          "name": "_owner",
          "type": "address"
        }
      ],
      "name": "balanceOf",
      "outputs": [
        {
          "name": "",
          "type": "uint256"
        }
      ],
      "payable": false,
      "stateMutability": "view",
      "type": "function"
    },
    {
      "constant": true,
      "inputs": [],
      "name": "metadataUri",
      "outputs": [
        {
          "name": "",
          "type": "string"
        }
      ],
      "payable": false,
      "stateMutability": "view",
      "type": "function"
    },
    {
      "constant": true,
      "inputs": [],
      "name": "owner",
      "outputs": [
        {
          "name": "",
          "type": "address"
        }
      ],
      "payable": false,
      "stateMutability": "view",
      "type": "function"
    },
    {
      "constant": true,
      "inputs": [
        {
          "name": "",
          "type": "uint256"
        }
      ],
      "name": "tokenToPixel",
      "outputs": [
        {
          "name": "x",
          "type": "uint16"
        },
        {
          "name": "y",
          "type": "uint16"
        },
        {
          "name": "color",
          "type": "string"
        }
      ],
      "payable": false,
      "stateMutability": "view",
      "type": "function"
    },
    {
      "constant": true,
      "inputs": [],
      "name": "symbol",
      "outputs": [
        {
          "name": "",
          "type": "string"
        }
      ],
      "payable": false,
      "stateMutability": "view",
      "type": "function"
    },
    {
      "constant": false,
      "inputs": [
        {
          "name": "_to",
          "type": "address"
        },
        {
          "name": "_approved",
          "type": "bool"
        }
      ],
      "name": "setApprovalForAll",
      "outputs": [],
      "payable": false,
      "stateMutability": "nonpayable",
      "type": "function"
    },
    {
      "constant": false,
      "inputs": [
        {
          "name": "_from",
          "type": "address"
        },
        {
          "name": "_to",
          "type": "address"
        },
        {
          "name": "_tokenId",
          "type": "uint256"
        },
        {
          "name": "_data",
          "type": "bytes"
        }
      ],
      "name": "safeTransferFrom",
      "outputs": [],
      "payable": false,
      "stateMutability": "nonpayable",
      "type": "function"
    },
    {
      "constant": true,
      "inputs": [
        {
          "name": "_tokenId",
          "type": "uint256"
        }
      ],
      "name": "tokenURI",
      "outputs": [
        {
          "name": "",
          "type": "string"
        }
      ],
      "payable": false,
      "stateMutability": "view",
      "type": "function"
    },
    {
      "constant": true,
      "inputs": [],
      "name": "xPixels",
      "outputs": [
        {
          "name": "",
          "type": "uint16"
        }
      ],
      "payable": false,
      "stateMutability": "view",
      "type": "function"
    },
    {
      "constant": true,
      "inputs": [
        {
          "name": "_owner",
          "type": "address"
        },
        {
          "name": "_operator",
          "type": "address"
        }
      ],
      "name": "isApprovedForAll",
      "outputs": [
        {
          "name": "",
          "type": "bool"
        }
      ],
      "payable": false,
      "stateMutability": "view",
      "type": "function"
    },
    {
      "constant": false,
      "inputs": [
        {
          "name": "newOwner",
          "type": "address"
        }
      ],
      "name": "transferOwnership",
      "outputs": [],
      "payable": false,
      "stateMutability": "nonpayable",
      "type": "function"
    },
    {
      "inputs": [
        {
          "name": "_xPixels",
          "type": "uint16"
        },
        {
          "name": "_yPixels",
          "type": "uint16"
        },
        {
          "name": "_minDonation",
          "type": "uint256"
        },
        {
          "name": "_metadataUri",
          "type": "string"
        }
      ],
      "payable": false,
      "stateMutability": "nonpayable",
      "type": "constructor"
    },
    {
      "payable": true,
      "stateMutability": "payable",
      "type": "fallback"
    },
    {
      "anonymous": false,
      "inputs": [
        {
          "indexed": false,
          "name": "x",
          "type": "uint16"
        },
        {
          "indexed": false,
          "name": "y",
          "type": "uint16"
        },
        {
          "indexed": false,
          "name": "color",
          "type": "string"
        },
        {
          "indexed": false,
          "name": "donation",
          "type": "uint256"
        },
        {
          "indexed": false,
          "name": "contributor",
          "type": "address"
        }
      ],
      "name": "PixelCreated",
      "type": "event"
    },
    {
      "anonymous": false,
      "inputs": [
        {
          "indexed": true,
          "name": "previousOwner",
          "type": "address"
        },
        {
          "indexed": true,
          "name": "newOwner",
          "type": "address"
        }
      ],
      "name": "OwnershipTransferred",
      "type": "event"
    },
    {
      "anonymous": false,
      "inputs": [
        {
          "indexed": true,
          "name": "_from",
          "type": "address"
        },
        {
          "indexed": true,
          "name": "_to",
          "type": "address"
        },
        {
          "indexed": false,
          "name": "_tokenId",
          "type": "uint256"
        }
      ],
      "name": "Transfer",
      "type": "event"
    },
    {
      "anonymous": false,
      "inputs": [
        {
          "indexed": true,
          "name": "_owner",
          "type": "address"
        },
        {
          "indexed": true,
          "name": "_approved",
          "type": "address"
        },
        {
          "indexed": false,
          "name": "_tokenId",
          "type": "uint256"
        }
      ],
      "name": "Approval",
      "type": "event"
    },
    {
      "anonymous": false,
      "inputs": [
        {
          "indexed": true,
          "name": "_owner",
          "type": "address"
        },
        {
          "indexed": true,
          "name": "_operator",
          "type": "address"
        },
        {
          "indexed": false,
          "name": "_approved",
          "type": "bool"
        }
      ],
      "name": "ApprovalForAll",
      "type": "event"
    },
    {
      "constant": false,
      "inputs": [
        {
          "name": "_x",
          "type": "uint16"
        },
        {
          "name": "_y",
          "type": "uint16"
        },
        {
          "name": "_color",
          "type": "string"
        }
      ],
      "name": "donatePixel",
      "outputs": [],
      "payable": true,
      "stateMutability": "payable",
      "type": "function"
    },
    {
      "constant": true,
      "inputs": [],
      "name": "getDetails",
      "outputs": [
        {
          "name": "_xPixels",
          "type": "uint16"
        },
        {
          "name": "_yPixels",
          "type": "uint16"
        },
        {
          "name": "_minDonation",
          "type": "uint256"
        },
        {
          "name": "_metadataUri",
          "type": "string"
        }
      ],
      "payable": false,
      "stateMutability": "view",
      "type": "function"
    }
  ],
  "bytecode": "0x606060405234156200001057600080fd5b60405162001a9438038062001a94833981016040528080519190602001805191906020018051919060200180519091019050604080519081016040908152600c82527f506978656c34496d70616374000000000000000000000000000000000000000060208301528051908101604052600381527f503449000000000000000000000000000000000000000000000000000000000060208201526004828051620000bf92916020019062000172565b506005818051620000d592916020019062000172565b5050600b8054600160a060020a03191633600160a060020a03161760a060020a61ffff0219167401000000000000000000000000000000000000000061ffff888116919091029190911760b060020a61ffff0219167601000000000000000000000000000000000000000000009187169190910217905550600c829055600d8180516200016792916020019062000172565b505050505062000217565b828054600181600116156101000203166002900490600052602060002090601f016020900481019282601f10620001b557805160ff1916838001178555620001e5565b82800160010185558215620001e5579182015b82811115620001e5578251825591602001919060010190620001c8565b50620001f3929150620001f7565b5090565b6200021491905b80821115620001f35760008155600101620001fe565b90565b61186d80620002276000396000f3006060604052600436106101485763ffffffff7c010000000000000000000000000000000000000000000000000000000060003504166306fdde03811461014a578063081812fc146101d4578063095ea7b31461020657806318160ddd146102285780631c0e02251461024d57806323b872dd146102605780632f745c591461028857806342842e0e146102aa5780634f558e79146102d25780634f6ccce7146102fc57806350c3aa18146103125780636352211e1461036b5780636c2d1c3a1461038157806370a08231146103ab57806377a4d559146103ca5780638da5cb5b146103dd57806395be2ebd146103f057806395d89b4114610491578063a22cb465146104a4578063b88d4fde146104c8578063c87b56dd14610534578063cf9b50bf1461054a578063e985e9c51461055d578063f2fde38b14610582578063fbbf93a0146105a1575b005b341561015557600080fd5b61015d610647565b60405160208082528190810183818151815260200191508051906020019080838360005b83811015610199578082015183820152602001610181565b50505050905090810190601f1680156101c65780820380516001836020036101000a031916815260200191505b509250505060405180910390f35b34156101df57600080fd5b6101ea6004356106f0565b604051600160a060020a03909116815260200160405180910390f35b341561021157600080fd5b610148600160a060020a036004351660243561070b565b341561023357600080fd5b61023b610807565b60405190815260200160405180910390f35b341561025857600080fd5b61023b61080d565b341561026b57600080fd5b610148600160a060020a0360043581169060243516604435610813565b341561029357600080fd5b61023b600160a060020a03600435166024356108be565b34156102b557600080fd5b610148600160a060020a036004358116906024351660443561090c565b34156102dd57600080fd5b6102e8600435610942565b604051901515815260200160405180910390f35b341561030757600080fd5b61023b60043561095f565b61014861ffff6004803582169160248035909116919060649060443590810190830135806020601f8201819004810201604051908101604052818152929190602084018383808284375094965061099595505050505050565b341561037657600080fd5b6101ea600435610b47565b341561038c57600080fd5b610394610b71565b60405161ffff909116815260200160405180910390f35b34156103b657600080fd5b61023b600160a060020a0360043516610b95565b34156103d557600080fd5b61015d610bc8565b34156103e857600080fd5b6101ea610c66565b34156103fb57600080fd5b610406600435610c75565b60405161ffff80851682528316602082015260606040820181815290820183818151815260200191508051906020019080838360005b8381101561045457808201518382015260200161043c565b50505050905090810190601f1680156104815780820380516001836020036101000a031916815260200191505b5094505050505060405180910390f35b341561049c57600080fd5b61015d610d44565b34156104af57600080fd5b610148600160a060020a03600435166024351515610db7565b34156104d357600080fd5b610148600160a060020a036004803582169160248035909116916044359160849060643590810190830135806020601f82018190048102016040519081016040528181529291906020840183838082843750949650610e4895505050505050565b341561053f57600080fd5b61015d600435610e87565b341561055557600080fd5b610394610f56565b341561056857600080fd5b6102e8600160a060020a0360043581169060243516610f78565b341561058d57600080fd5b610148600160a060020a0360043516610fa6565b34156105ac57600080fd5b6105b4611041565b60405161ffff8086168252841660208201526040810183905260806060820181815290820183818151815260200191508051906020019080838360005b838110156106095780820151838201526020016105f1565b50505050905090810190601f1680156106365780820380516001836020036101000a031916815260200191505b509550505050505060405180910390f35b61064f611751565b60048054600181600116156101000203166002900480601f0160208091040260200160405190810160405280929190818152602001828054600181600116156101000203166002900480156106e55780601f106106ba576101008083540402835291602001916106e5565b820191906000526020600020905b8154815290600101906020018083116106c857829003601f168201915b505050505090505b90565b600090815260016020526040902054600160a060020a031690565b600061071682610b47565b9050600160a060020a03838116908216141561073157600080fd5b80600160a060020a031633600160a060020a0316148061075657506107568133610f78565b151561076157600080fd5b600061076c836106f0565b600160a060020a031614158061078a5750600160a060020a03831615155b156108025760008281526001602052604090819020805473ffffffffffffffffffffffffffffffffffffffff1916600160a060020a0386811691821790925591908316907f8c5be1e5ebec7d5bd14f71427d1e84f3dd0314c0f7b2291e5b200ac8c7c3b9259085905190815260200160405180910390a35b505050565b60085490565b600c5481565b8061081e338261113e565b151561082957600080fd5b600160a060020a038416151561083e57600080fd5b600160a060020a038316151561085357600080fd5b61085d848361119d565b610867848361124d565b610871838361137b565b82600160a060020a031684600160a060020a03167fddf252ad1be2c89b69c2b068fc378daa952ba7f163c4a11628f55a4df523b3ef8460405190815260200160405180910390a350505050565b60006108c983610b95565b82106108d457600080fd5b600160a060020a03831660009081526006602052604090208054839081106108f857fe5b906000526020600020900154905092915050565b80610917338261113e565b151561092257600080fd5b61093c848484602060405190810160405260008152610e48565b50505050565b600090815260208190526040902054600160a060020a0316151590565b6000610969610807565b821061097457600080fd5b600880548390811061098257fe5b9060005260206000209001549050919050565b600061099f611763565b61ffff8086166000908152600f60209081526040808320938816835292905220548590859060ff16156109d157600080fd5b600b5461ffff740100000000000000000000000000000000000000009091048116908316106109ff57600080fd5b600b5461ffff760100000000000000000000000000000000000000000000909104811690821610610a2f57600080fd5b600c54341015610a3e57600080fd5b610a466113d5565b9350610a5233856113f5565b6060604051908101604052808861ffff1681526020018761ffff16815260200186815250925082600e60008681526020019081526020016000206000820151815461ffff191661ffff919091161781556020820151815461ffff91909116620100000263ffff000019909116178155604082015181600101908051610adb929160200190611789565b50505061ffff8088166000908152600f60209081526040808320938a168352929052819020805460ff19166001179055600b54600160a060020a0316903480156108fc029151600060405180830381858888f193505050501515610b3e57600080fd5b50505050505050565b600081815260208190526040812054600160a060020a0316801515610b6b57600080fd5b92915050565b600b54760100000000000000000000000000000000000000000000900461ffff1681565b6000600160a060020a0382161515610bac57600080fd5b50600160a060020a031660009081526002602052604090205490565b600d8054600181600116156101000203166002900480601f016020809104026020016040519081016040528092919081815260200182805460018160011615610100020316600290048015610c5e5780601f10610c3357610100808354040283529160200191610c5e565b820191906000526020600020905b815481529060010190602001808311610c4157829003601f168201915b505050505081565b600b54600160a060020a031681565b600e6020908152600091825260409182902080546001808301805461ffff80851697620100009095041695919360026000199483161561010002949094019091169290920491601f8301829004820290910190519081016040528092919081815260200182805460018160011615610100020316600290048015610d3a5780601f10610d0f57610100808354040283529160200191610d3a565b820191906000526020600020905b815481529060010190602001808311610d1d57829003601f168201915b5050505050905083565b610d4c611751565b60058054600181600116156101000203166002900480601f0160208091040260200160405190810160405280929190818152602001828054600181600116156101000203166002900480156106e55780601f106106ba576101008083540402835291602001916106e5565b33600160a060020a031682600160a060020a031614151515610dd857600080fd5b33600160a060020a0390811660008181526003602090815260408083209487168084529490915290819020805460ff19168515151790557f17307eab39ab6107e8899845ad3d59bd9653f200f220920489ca2b5937696c3190849051901515815260200160405180910390a35050565b81610e53338261113e565b1515610e5e57600080fd5b610e69858585610813565b610e7585858585611432565b1515610e8057600080fd5b5050505050565b610e8f611751565b610e9882610942565b1515610ea357600080fd5b600a60008381526020019081526020016000208054600181600116156101000203166002900480601f016020809104026020016040519081016040528092919081815260200182805460018160011615610100020316600290048015610f4a5780601f10610f1f57610100808354040283529160200191610f4a565b820191906000526020600020905b815481529060010190602001808311610f2d57829003601f168201915b50505050509050919050565b600b5474010000000000000000000000000000000000000000900461ffff1681565b600160a060020a03918216600090815260036020908152604080832093909416825291909152205460ff1690565b600b5433600160a060020a03908116911614610fc157600080fd5b600160a060020a0381161515610fd657600080fd5b600b54600160a060020a0380831691167f8be0079c531659141344cd1fd0a4f28419497f9722a3daafe3b4186f6b6457e060405160405180910390a3600b805473ffffffffffffffffffffffffffffffffffffffff1916600160a060020a0392909216919091179055565b600080600061104e611751565b600b54600c54600d805461ffff7401000000000000000000000000000000000000000085048116947601000000000000000000000000000000000000000000009004169291908190600260001960018316156101000201909116046020601f820181900481020160405190810160405280929190818152602001828054600181600116156101000203166002900480156111295780601f106110fe57610100808354040283529160200191611129565b820191906000526020600020905b81548152906001019060200180831161110c57829003601f168201915b50505050509050935093509350935090919293565b60008061114a83610b47565b905080600160a060020a031684600160a060020a03161480611185575083600160a060020a031661117a846106f0565b600160a060020a0316145b8061119557506111958185610f78565b949350505050565b81600160a060020a03166111b082610b47565b600160a060020a0316146111c357600080fd5b600081815260016020526040902054600160a060020a03161561124957600081815260016020526040808220805473ffffffffffffffffffffffffffffffffffffffff19169055600160a060020a038416907f8c5be1e5ebec7d5bd14f71427d1e84f3dd0314c0f7b2291e5b200ac8c7c3b9259084905190815260200160405180910390a35b5050565b600080600061125c85856115a4565b600084815260076020908152604080832054600160a060020a038916845260069092529091205490935061129790600163ffffffff61163916565b600160a060020a0386166000908152600660205260409020805491935090839081106112bf57fe5b6000918252602080832090910154600160a060020a03881683526006909152604090912080549192508291859081106112f457fe5b6000918252602080832090910192909255600160a060020a038716815260069091526040812080548490811061132657fe5b6000918252602080832090910192909255600160a060020a038716815260069091526040902080549061135d906000198301611807565b50600093845260076020526040808520859055908452909220555050565b6000611387838361164b565b50600160a060020a038216600090815260066020526040902080549081600181016113b28382611807565b506000918252602080832091909101849055928152600790925260409091205550565b60006113f060016113e4610807565b9063ffffffff6116da16565b905090565b6113ff82826116e7565b600880546000838152600960205260409020819055600181016114228382611807565b5060009182526020909120015550565b60008061144785600160a060020a0316611749565b1515611456576001915061159b565b84600160a060020a031663f0b9e5ba8786866040518463ffffffff167c01000000000000000000000000000000000000000000000000000000000281526004018084600160a060020a0316600160a060020a0316815260200183815260200180602001828103825283818151815260200191508051906020019080838360005b838110156114ee5780820151838201526020016114d6565b50505050905090810190601f16801561151b5780820380516001836020036101000a031916815260200191505b50945050505050602060405180830381600087803b151561153b57600080fd5b5af1151561154857600080fd5b50505060405180517fffffffff0000000000000000000000000000000000000000000000000000000081167ff0b9e5ba000000000000000000000000000000000000000000000000000000001493509150505b50949350505050565b81600160a060020a03166115b782610b47565b600160a060020a0316146115ca57600080fd5b600160a060020a0382166000908152600260205260409020546115f490600163ffffffff61163916565b600160a060020a039092166000908152600260209081526040808320949094559181529081905220805473ffffffffffffffffffffffffffffffffffffffff19169055565b60008282111561164557fe5b50900390565b600081815260208190526040902054600160a060020a03161561166d57600080fd5b600081815260208181526040808320805473ffffffffffffffffffffffffffffffffffffffff1916600160a060020a038716908117909155835260029091529020546116ba9060016116da565b600160a060020a0390921660009081526002602052604090209190915550565b81810182811015610b6b57fe5b600160a060020a03821615156116fc57600080fd5b611706828261137b565b600160a060020a03821660007fddf252ad1be2c89b69c2b068fc378daa952ba7f163c4a11628f55a4df523b3ef8360405190815260200160405180910390a35050565b6000903b1190565b60206040519081016040526000815290565b60606040519081016040908152600080835260208301528101611784611751565b905290565b828054600181600116156101000203166002900490600052602060002090601f016020900481019282601f106117ca57805160ff19168380011785556117f7565b828001600101855582156117f7579182015b828111156117f75782518255916020019190600101906117dc565b50611803929150611827565b5090565b815481835581811511610802576000838152602090206108029181019083015b6106ed91905b80821115611803576000815560010161182d5600a165627a7a72305820eada5869e781a87f0ea7d54b58f87c47d5806f04c0a9468fde03c40bb82036110029",
  "source": "pragma solidity ^0.4.21;\n\nimport \"../node_modules/zeppelin-solidity/contracts/ownership/Ownable.sol\";\nimport \"../node_modules/zeppelin-solidity/contracts/token/ERC721/ERC721Token.sol\";\n\ncontract Pixel4Impact is ERC721Token, Ownable {\n\n    uint16 public xPixels;\n    uint16 public yPixels;\n    uint public minDonation;\n    string public metadataUri;\n\n    function Pixel4Impact(uint16 _xPixels, uint16 _yPixels, uint _minDonation, string _metadataUri) ERC721Token(\"Pixel4Impact\", \"P4I\") public { \n        xPixels = _xPixels;\n        yPixels = _yPixels;\n        minDonation = _minDonation;\n        metadataUri = _metadataUri;\n    }\n\n    struct Pixel {\n        uint16 x;\n        uint16 y;\n        string color;\n    }\n    \n    mapping(uint256 => Pixel) public tokenToPixel;\n    mapping(uint16 => mapping(uint16 => bool)) pixelsTaken;\n    \n    event PixelCreated(uint16 x, uint16 y, string color, uint donation, address contributor);\n\n    modifier tokenAvailable(uint16 x, uint16 y) {\n        require(!pixelsTaken[x][y]);\n        require(x < xPixels);\n        require(y < yPixels);\n        _;\n    }\n\n    modifier isMinDonation() {\n        require(msg.value >= minDonation);\n        _;\n    }\n\n\n    function donatePixel(uint16 _x, uint16 _y, string _color) public payable tokenAvailable(_x, _y) isMinDonation() {\n        uint256 newTokenId = _getNextTokenId();\n        _mint(msg.sender, newTokenId);\n        Pixel memory pixel = Pixel({\n            x: _x,\n            y: _y,\n            color: _color\n        });\n        tokenToPixel[newTokenId] = pixel;\n        pixelsTaken[_x][_y] = true;\n\n        owner.transfer(msg.value);\n    }\n\n    function _getNextTokenId() private view returns (uint256) {\n        return totalSupply().add(1); \n    }\n\n    function getDetails() public view returns(uint16 _xPixels, uint16 _yPixels, uint _minDonation, string _metadataUri) {\n        return (xPixels, yPixels, minDonation, metadataUri);\n    }\n\n    \n\n    function () external payable {\n        //TODO;\n    }\n}",
  "sourcePath": "/Users/joaoaguiam/Documents/Joao2017/Dev/pixel4impact/contracts/Pixel4Impact.sol",
  "compiler": {
    "name": "solc",
    "version": "0.4.21+commit.dfe3193c.Emscripten.clang"
  },
  "schemaVersion": "2.0.0",
  "updatedAt": "2018-05-04T04:20:57.669Z"
}