{
  "contractName": "Pixel4Impact",
  "abi": [
    {
      "constant": true,
      "inputs": [],
      "name": "name",
      "outputs": [
        {
          "name": "",
          "type": "string"
        }
      ],
      "payable": false,
      "stateMutability": "view",
      "type": "function"
    },
    {
      "constant": true,
      "inputs": [
        {
          "name": "_tokenId",
          "type": "uint256"
        }
      ],
      "name": "getApproved",
      "outputs": [
        {
          "name": "",
          "type": "address"
        }
      ],
      "payable": false,
      "stateMutability": "view",
      "type": "function"
    },
    {
      "constant": false,
      "inputs": [
        {
          "name": "_to",
          "type": "address"
        },
        {
          "name": "_tokenId",
          "type": "uint256"
        }
      ],
      "name": "approve",
      "outputs": [],
      "payable": false,
      "stateMutability": "nonpayable",
      "type": "function"
    },
    {
      "constant": true,
      "inputs": [],
      "name": "totalSupply",
      "outputs": [
        {
          "name": "",
          "type": "uint256"
        }
      ],
      "payable": false,
      "stateMutability": "view",
      "type": "function"
    },
    {
      "constant": true,
      "inputs": [],
      "name": "minDonation",
      "outputs": [
        {
          "name": "",
          "type": "uint256"
        }
      ],
      "payable": false,
      "stateMutability": "view",
      "type": "function"
    },
    {
      "constant": false,
      "inputs": [
        {
          "name": "_from",
          "type": "address"
        },
        {
          "name": "_to",
          "type": "address"
        },
        {
          "name": "_tokenId",
          "type": "uint256"
        }
      ],
      "name": "transferFrom",
      "outputs": [],
      "payable": false,
      "stateMutability": "nonpayable",
      "type": "function"
    },
    {
      "constant": true,
      "inputs": [
        {
          "name": "_owner",
          "type": "address"
        },
        {
          "name": "_index",
          "type": "uint256"
        }
      ],
      "name": "tokenOfOwnerByIndex",
      "outputs": [
        {
          "name": "",
          "type": "uint256"
        }
      ],
      "payable": false,
      "stateMutability": "view",
      "type": "function"
    },
    {
      "constant": false,
      "inputs": [
        {
          "name": "_from",
          "type": "address"
        },
        {
          "name": "_to",
          "type": "address"
        },
        {
          "name": "_tokenId",
          "type": "uint256"
        }
      ],
      "name": "safeTransferFrom",
      "outputs": [],
      "payable": false,
      "stateMutability": "nonpayable",
      "type": "function"
    },
    {
      "constant": true,
      "inputs": [
        {
          "name": "_tokenId",
          "type": "uint256"
        }
      ],
      "name": "exists",
      "outputs": [
        {
          "name": "",
          "type": "bool"
        }
      ],
      "payable": false,
      "stateMutability": "view",
      "type": "function"
    },
    {
      "constant": true,
      "inputs": [
        {
          "name": "_index",
          "type": "uint256"
        }
      ],
      "name": "tokenByIndex",
      "outputs": [
        {
          "name": "",
          "type": "uint256"
        }
      ],
      "payable": false,
      "stateMutability": "view",
      "type": "function"
    },
    {
      "constant": true,
      "inputs": [
        {
          "name": "_tokenId",
          "type": "uint256"
        }
      ],
      "name": "ownerOf",
      "outputs": [
        {
          "name": "",
          "type": "address"
        }
      ],
      "payable": false,
      "stateMutability": "view",
      "type": "function"
    },
    {
      "constant": true,
      "inputs": [],
      "name": "yPixels",
      "outputs": [
        {
          "name": "",
          "type": "uint256"
        }
      ],
      "payable": false,
      "stateMutability": "view",
      "type": "function"
    },
    {
      "constant": true,
      "inputs": [
        {
          "name": "_owner",
          "type": "address"
        }
      ],
      "name": "balanceOf",
      "outputs": [
        {
          "name": "",
          "type": "uint256"
        }
      ],
      "payable": false,
      "stateMutability": "view",
      "type": "function"
    },
    {
      "constant": true,
      "inputs": [],
      "name": "metadataUri",
      "outputs": [
        {
          "name": "",
          "type": "string"
        }
      ],
      "payable": false,
      "stateMutability": "view",
      "type": "function"
    },
    {
      "constant": true,
      "inputs": [],
      "name": "owner",
      "outputs": [
        {
          "name": "",
          "type": "address"
        }
      ],
      "payable": false,
      "stateMutability": "view",
      "type": "function"
    },
    {
      "constant": true,
      "inputs": [],
      "name": "symbol",
      "outputs": [
        {
          "name": "",
          "type": "string"
        }
      ],
      "payable": false,
      "stateMutability": "view",
      "type": "function"
    },
    {
      "constant": false,
      "inputs": [
        {
          "name": "_to",
          "type": "address"
        },
        {
          "name": "_approved",
          "type": "bool"
        }
      ],
      "name": "setApprovalForAll",
      "outputs": [],
      "payable": false,
      "stateMutability": "nonpayable",
      "type": "function"
    },
    {
      "constant": false,
      "inputs": [
        {
          "name": "_from",
          "type": "address"
        },
        {
          "name": "_to",
          "type": "address"
        },
        {
          "name": "_tokenId",
          "type": "uint256"
        },
        {
          "name": "_data",
          "type": "bytes"
        }
      ],
      "name": "safeTransferFrom",
      "outputs": [],
      "payable": false,
      "stateMutability": "nonpayable",
      "type": "function"
    },
    {
      "constant": true,
      "inputs": [
        {
          "name": "_tokenId",
          "type": "uint256"
        }
      ],
      "name": "tokenURI",
      "outputs": [
        {
          "name": "",
          "type": "string"
        }
      ],
      "payable": false,
      "stateMutability": "view",
      "type": "function"
    },
    {
      "constant": true,
      "inputs": [],
      "name": "xPixels",
      "outputs": [
        {
          "name": "",
          "type": "uint256"
        }
      ],
      "payable": false,
      "stateMutability": "view",
      "type": "function"
    },
    {
      "constant": true,
      "inputs": [
        {
          "name": "_owner",
          "type": "address"
        },
        {
          "name": "_operator",
          "type": "address"
        }
      ],
      "name": "isApprovedForAll",
      "outputs": [
        {
          "name": "",
          "type": "bool"
        }
      ],
      "payable": false,
      "stateMutability": "view",
      "type": "function"
    },
    {
      "constant": false,
      "inputs": [
        {
          "name": "newOwner",
          "type": "address"
        }
      ],
      "name": "transferOwnership",
      "outputs": [],
      "payable": false,
      "stateMutability": "nonpayable",
      "type": "function"
    },
    {
      "inputs": [
        {
          "name": "_xPixels",
          "type": "uint256"
        },
        {
          "name": "_yPixels",
          "type": "uint256"
        },
        {
          "name": "_minDonation",
          "type": "uint256"
        },
        {
          "name": "_metadataUri",
          "type": "string"
        }
      ],
      "payable": false,
      "stateMutability": "nonpayable",
      "type": "constructor"
    },
    {
      "payable": true,
      "stateMutability": "payable",
      "type": "fallback"
    },
    {
      "anonymous": false,
      "inputs": [
        {
          "indexed": false,
          "name": "x",
          "type": "uint256"
        },
        {
          "indexed": false,
          "name": "y",
          "type": "uint256"
        },
        {
          "indexed": false,
          "name": "color",
          "type": "string"
        },
        {
          "indexed": false,
          "name": "donation",
          "type": "uint256"
        },
        {
          "indexed": false,
          "name": "contributor",
          "type": "address"
        }
      ],
      "name": "PixelCreated",
      "type": "event"
    },
    {
      "anonymous": false,
      "inputs": [
        {
          "indexed": true,
          "name": "previousOwner",
          "type": "address"
        },
        {
          "indexed": true,
          "name": "newOwner",
          "type": "address"
        }
      ],
      "name": "OwnershipTransferred",
      "type": "event"
    },
    {
      "anonymous": false,
      "inputs": [
        {
          "indexed": true,
          "name": "_from",
          "type": "address"
        },
        {
          "indexed": true,
          "name": "_to",
          "type": "address"
        },
        {
          "indexed": false,
          "name": "_tokenId",
          "type": "uint256"
        }
      ],
      "name": "Transfer",
      "type": "event"
    },
    {
      "anonymous": false,
      "inputs": [
        {
          "indexed": true,
          "name": "_owner",
          "type": "address"
        },
        {
          "indexed": true,
          "name": "_approved",
          "type": "address"
        },
        {
          "indexed": false,
          "name": "_tokenId",
          "type": "uint256"
        }
      ],
      "name": "Approval",
      "type": "event"
    },
    {
      "anonymous": false,
      "inputs": [
        {
          "indexed": true,
          "name": "_owner",
          "type": "address"
        },
        {
          "indexed": true,
          "name": "_operator",
          "type": "address"
        },
        {
          "indexed": false,
          "name": "_approved",
          "type": "bool"
        }
      ],
      "name": "ApprovalForAll",
      "type": "event"
    },
    {
      "constant": false,
      "inputs": [
        {
          "name": "_x",
          "type": "uint256"
        },
        {
          "name": "_y",
          "type": "uint256"
        },
        {
          "name": "_color",
          "type": "string"
        }
      ],
      "name": "donatePixel",
      "outputs": [],
      "payable": true,
      "stateMutability": "payable",
      "type": "function"
    },
    {
      "constant": true,
      "inputs": [],
      "name": "getDetails",
      "outputs": [
        {
          "name": "_xPixels",
          "type": "uint256"
        },
        {
          "name": "_yPixels",
          "type": "uint256"
        },
        {
          "name": "_minDonation",
          "type": "uint256"
        },
        {
          "name": "_metadataUri",
          "type": "string"
        }
      ],
      "payable": false,
      "stateMutability": "view",
      "type": "function"
    },
    {
      "constant": true,
      "inputs": [],
      "name": "getNumPixelsTaken",
      "outputs": [
        {
          "name": "",
          "type": "uint256"
        }
      ],
      "payable": false,
      "stateMutability": "view",
      "type": "function"
    },
    {
      "constant": true,
      "inputs": [
        {
          "name": "_index",
          "type": "uint256"
        }
      ],
      "name": "getPixelTakenByIndex",
      "outputs": [
        {
          "name": "x",
          "type": "uint256"
        },
        {
          "name": "y",
          "type": "uint256"
        },
        {
          "name": "color",
          "type": "string"
        }
      ],
      "payable": false,
      "stateMutability": "view",
      "type": "function"
    },
    {
      "constant": true,
      "inputs": [],
      "name": "getNumDonators",
      "outputs": [
        {
          "name": "",
          "type": "uint256"
        }
      ],
      "payable": false,
      "stateMutability": "view",
      "type": "function"
    },
    {
      "constant": true,
      "inputs": [
        {
          "name": "_index",
          "type": "uint256"
        }
      ],
      "name": "getDonatorAddressByIndex",
      "outputs": [
        {
          "name": "",
          "type": "address"
        }
      ],
      "payable": false,
      "stateMutability": "view",
      "type": "function"
    }
  ],
  "bytecode": "0x606060405234156200001057600080fd5b60405162001a1238038062001a12833981016040528080519190602001805191906020018051919060200180519091019050604080519081016040908152600c82527f506978656c34496d70616374000000000000000000000000000000000000000060208301528051908101604052600381527f503449000000000000000000000000000000000000000000000000000000000060208201526004828051620000bf92916020019062000122565b506005818051620000d592916020019062000122565b5050600b8054600160a060020a03191633600160a060020a031617905550600c849055600d839055600e829055600f8180516200011792916020019062000122565b5050505050620001c7565b828054600181600116156101000203166002900490600052602060002090601f016020900481019282601f106200016557805160ff191683800117855562000195565b8280016001018555821562000195579182015b828111156200019557825182559160200191906001019062000178565b50620001a3929150620001a7565b5090565b620001c491905b80821115620001a35760008155600101620001ae565b90565b61183b80620001d76000396000f3006060604052600436106101695763ffffffff7c010000000000000000000000000000000000000000000000000000000060003504166306fdde03811461016b578063081812fc146101f5578063095ea7b31461022757806318160ddd146102495780631c0e02251461026e57806323b872dd146102815780632f745c59146102a95780633a1c6aee146102cb57806342842e0e1461031c5780634f558e79146103445780634f6ccce71461036e5780636352211e146103845780636c2d1c3a1461039a57806370a08231146103ad57806377a4d559146103cc57806380513201146103df5780638da5cb5b146103f5578063956da0141461040857806395d89b411461041b578063a22cb4651461042e578063b88d4fde14610452578063c87b56dd146104be578063cf9b50bf146104d4578063d009c53f146104e7578063e5cc7e0d146104fa578063e985e9c514610596578063f2fde38b146105bb578063fbbf93a0146105da575b005b341561017657600080fd5b61017e61067a565b60405160208082528190810183818151815260200191508051906020019080838360005b838110156101ba5780820151838201526020016101a2565b50505050905090810190601f1680156101e75780820380516001836020036101000a031916815260200191505b509250505060405180910390f35b341561020057600080fd5b61020b600435610723565b604051600160a060020a03909116815260200160405180910390f35b341561023257600080fd5b610169600160a060020a036004351660243561073e565b341561025457600080fd5b61025c61083a565b60405190815260200160405180910390f35b341561027957600080fd5b61025c610840565b341561028c57600080fd5b610169600160a060020a0360043581169060243516604435610846565b34156102b457600080fd5b61025c600160a060020a03600435166024356108f1565b610169600480359060248035919060649060443590810190830135806020601f8201819004810201604051908101604052818152929190602084018383808284375094965061093f95505050505050565b341561032757600080fd5b610169600160a060020a0360043581169060243516604435610ac4565b341561034f57600080fd5b61035a600435610afa565b604051901515815260200160405180910390f35b341561037957600080fd5b61025c600435610b17565b341561038f57600080fd5b61020b600435610b4d565b34156103a557600080fd5b61025c610b77565b34156103b857600080fd5b61025c600160a060020a0360043516610b7d565b34156103d757600080fd5b61017e610bb0565b34156103ea57600080fd5b61020b600435610c4e565b341561040057600080fd5b61020b610c7a565b341561041357600080fd5b61025c610c89565b341561042657600080fd5b61017e610c8f565b341561043957600080fd5b610169600160a060020a03600435166024351515610d02565b341561045d57600080fd5b610169600160a060020a036004803582169160248035909116916044359160849060643590810190830135806020601f82018190048102016040519081016040528181529291906020840183838082843750949650610d9395505050505050565b34156104c957600080fd5b61017e600435610dd2565b34156104df57600080fd5b61025c610ea1565b34156104f257600080fd5b61025c610ea7565b341561050557600080fd5b610510600435610ead565b6040518084815260200183815260200180602001828103825283818151815260200191508051906020019080838360005b83811015610559578082015183820152602001610541565b50505050905090810190601f1680156105865780820380516001836020036101000a031916815260200191505b5094505050505060405180910390f35b34156105a157600080fd5b61035a600160a060020a0360043581169060243516610f91565b34156105c657600080fd5b610169600160a060020a0360043516610fbf565b34156105e557600080fd5b6105ed61105a565b6040518085815260200184815260200183815260200180602001828103825283818151815260200191508051906020019080838360005b8381101561063c578082015183820152602001610624565b50505050905090810190601f1680156106695780820380516001836020036101000a031916815260200191505b509550505050505060405180910390f35b61068261171e565b60048054600181600116156101000203166002900480601f0160208091040260200160405190810160405280929190818152602001828054600181600116156101000203166002900480156107185780601f106106ed57610100808354040283529160200191610718565b820191906000526020600020905b8154815290600101906020018083116106fb57829003601f168201915b505050505090505b90565b600090815260016020526040902054600160a060020a031690565b600061074982610b4d565b9050600160a060020a03838116908216141561076457600080fd5b80600160a060020a031633600160a060020a0316148061078957506107898133610f91565b151561079457600080fd5b600061079f83610723565b600160a060020a03161415806107bd5750600160a060020a03831615155b156108355760008281526001602052604090819020805473ffffffffffffffffffffffffffffffffffffffff1916600160a060020a0386811691821790925591908316907f8c5be1e5ebec7d5bd14f71427d1e84f3dd0314c0f7b2291e5b200ac8c7c3b9259085905190815260200160405180910390a35b505050565b60085490565b600e5481565b80610851338261111c565b151561085c57600080fd5b600160a060020a038416151561087157600080fd5b600160a060020a038316151561088657600080fd5b610890848361117b565b61089a848361122b565b6108a48383611359565b82600160a060020a031684600160a060020a03167fddf252ad1be2c89b69c2b068fc378daa952ba7f163c4a11628f55a4df523b3ef8460405190815260200160405180910390a350505050565b60006108fc83610b7d565b821061090757600080fd5b600160a060020a038316600090815260066020526040902080548390811061092b57fe5b906000526020600020900154905092915050565b6000610949611730565b60008581526011602090815260408083208784529091529020548590859060ff161561097457600080fd5b600c54821061098257600080fd5b600d54811061099057600080fd5b600e5434101561099f57600080fd5b6109a76113b3565b93506109b333856113c2565b606060405190810160405280888152602001878152602001868152509250826010858154811015156109e157fe5b90600052602060002090600302016000820151815560208201518160010155604082015181600201908051610a1a929160200190611757565b50505060008781526011602090815260408083208984529091529020805460ff191660019081179091556012805490918101610a5683826117d5565b5060009182526020909120018054600160a060020a0333811673ffffffffffffffffffffffffffffffffffffffff1990921691909117909155600b54163480156108fc0290604051600060405180830381858888f193505050501515610abb57600080fd5b50505050505050565b80610acf338261111c565b1515610ada57600080fd5b610af4848484602060405190810160405260008152610d93565b50505050565b600090815260208190526040902054600160a060020a0316151590565b6000610b2161083a565b8210610b2c57600080fd5b6008805483908110610b3a57fe5b9060005260206000209001549050919050565b600081815260208190526040812054600160a060020a0316801515610b7157600080fd5b92915050565b600d5481565b6000600160a060020a0382161515610b9457600080fd5b50600160a060020a031660009081526002602052604090205490565b600f8054600181600116156101000203166002900480601f016020809104026020016040519081016040528092919081815260200182805460018160011615610100020316600290048015610c465780601f10610c1b57610100808354040283529160200191610c46565b820191906000526020600020905b815481529060010190602001808311610c2957829003601f168201915b505050505081565b6000601282815481101515610c5f57fe5b600091825260209091200154600160a060020a031692915050565b600b54600160a060020a031681565b60105490565b610c9761171e565b60058054600181600116156101000203166002900480601f0160208091040260200160405190810160405280929190818152602001828054600181600116156101000203166002900480156107185780601f106106ed57610100808354040283529160200191610718565b33600160a060020a031682600160a060020a031614151515610d2357600080fd5b33600160a060020a0390811660008181526003602090815260408083209487168084529490915290819020805460ff19168515151790557f17307eab39ab6107e8899845ad3d59bd9653f200f220920489ca2b5937696c3190849051901515815260200160405180910390a35050565b81610d9e338261111c565b1515610da957600080fd5b610db4858585610846565b610dc0858585856113ff565b1515610dcb57600080fd5b5050505050565b610dda61171e565b610de382610afa565b1515610dee57600080fd5b600a60008381526020019081526020016000208054600181600116156101000203166002900480601f016020809104026020016040519081016040528092919081815260200182805460018160011615610100020316600290048015610e955780601f10610e6a57610100808354040283529160200191610e95565b820191906000526020600020905b815481529060010190602001808311610e7857829003601f168201915b50505050509050919050565b600c5481565b60125490565b600080610eb861171e565b6000601085815481101515610ec957fe5b906000526020600020906003020190508060000154816001015482600201808054600181600116156101000203166002900480601f016020809104026020016040519081016040528092919081815260200182805460018160011615610100020316600290048015610f7c5780601f10610f5157610100808354040283529160200191610f7c565b820191906000526020600020905b815481529060010190602001808311610f5f57829003601f168201915b50505050509050935093509350509193909250565b600160a060020a03918216600090815260036020908152604080832093909416825291909152205460ff1690565b600b5433600160a060020a03908116911614610fda57600080fd5b600160a060020a0381161515610fef57600080fd5b600b54600160a060020a0380831691167f8be0079c531659141344cd1fd0a4f28419497f9722a3daafe3b4186f6b6457e060405160405180910390a3600b805473ffffffffffffffffffffffffffffffffffffffff1916600160a060020a0392909216919091179055565b600080600061106761171e565b600c54600d54600e54600f808054600181600116156101000203166002900480601f0160208091040260200160405190810160405280929190818152602001828054600181600116156101000203166002900480156111075780601f106110dc57610100808354040283529160200191611107565b820191906000526020600020905b8154815290600101906020018083116110ea57829003601f168201915b50505050509050935093509350935090919293565b60008061112883610b4d565b905080600160a060020a031684600160a060020a03161480611163575083600160a060020a031661115884610723565b600160a060020a0316145b8061117357506111738185610f91565b949350505050565b81600160a060020a031661118e82610b4d565b600160a060020a0316146111a157600080fd5b600081815260016020526040902054600160a060020a03161561122757600081815260016020526040808220805473ffffffffffffffffffffffffffffffffffffffff19169055600160a060020a038416907f8c5be1e5ebec7d5bd14f71427d1e84f3dd0314c0f7b2291e5b200ac8c7c3b9259084905190815260200160405180910390a35b5050565b600080600061123a8585611571565b600084815260076020908152604080832054600160a060020a038916845260069092529091205490935061127590600163ffffffff61160616565b600160a060020a03861660009081526006602052604090208054919350908390811061129d57fe5b6000918252602080832090910154600160a060020a03881683526006909152604090912080549192508291859081106112d257fe5b6000918252602080832090910192909255600160a060020a038716815260069091526040812080548490811061130457fe5b6000918252602080832090910192909255600160a060020a038716815260069091526040902080549061133b9060001983016117d5565b50600093845260076020526040808520859055908452909220555050565b60006113658383611618565b50600160a060020a0382166000908152600660205260409020805490816001810161139083826117d5565b506000918252602080832091909101849055928152600790925260409091205550565b60006113bd61083a565b905090565b6113cc82826116a7565b600880546000838152600960205260409020819055600181016113ef83826117d5565b5060009182526020909120015550565b60008061141485600160a060020a0316611709565b15156114235760019150611568565b84600160a060020a031663f0b9e5ba8786866040518463ffffffff167c01000000000000000000000000000000000000000000000000000000000281526004018084600160a060020a0316600160a060020a0316815260200183815260200180602001828103825283818151815260200191508051906020019080838360005b838110156114bb5780820151838201526020016114a3565b50505050905090810190601f1680156114e85780820380516001836020036101000a031916815260200191505b50945050505050602060405180830381600087803b151561150857600080fd5b5af1151561151557600080fd5b50505060405180517fffffffff0000000000000000000000000000000000000000000000000000000081167ff0b9e5ba000000000000000000000000000000000000000000000000000000001493509150505b50949350505050565b81600160a060020a031661158482610b4d565b600160a060020a03161461159757600080fd5b600160a060020a0382166000908152600260205260409020546115c190600163ffffffff61160616565b600160a060020a039092166000908152600260209081526040808320949094559181529081905220805473ffffffffffffffffffffffffffffffffffffffff19169055565b60008282111561161257fe5b50900390565b600081815260208190526040902054600160a060020a03161561163a57600080fd5b600081815260208181526040808320805473ffffffffffffffffffffffffffffffffffffffff1916600160a060020a03871690811790915583526002909152902054611687906001611711565b600160a060020a0390921660009081526002602052604090209190915550565b600160a060020a03821615156116bc57600080fd5b6116c68282611359565b600160a060020a03821660007fddf252ad1be2c89b69c2b068fc378daa952ba7f163c4a11628f55a4df523b3ef8360405190815260200160405180910390a35050565b6000903b1190565b81810182811015610b7157fe5b60206040519081016040526000815290565b606060405190810160405280600081526020016000815260200161175261171e565b905290565b828054600181600116156101000203166002900490600052602060002090601f016020900481019282601f1061179857805160ff19168380011785556117c5565b828001600101855582156117c5579182015b828111156117c55782518255916020019190600101906117aa565b506117d19291506117f5565b5090565b815481835581811511610835576000838152602090206108359181019083015b61072091905b808211156117d157600081556001016117fb5600a165627a7a72305820b499099e091e841eebc019986fbdaa13446cc70ef0cf991847c187bf8c755bbf0029",
  "source": "pragma solidity ^0.4.21;\n\nimport \"../node_modules/zeppelin-solidity/contracts/ownership/Ownable.sol\";\nimport \"../node_modules/zeppelin-solidity/contracts/token/ERC721/ERC721Token.sol\";\n\ncontract Pixel4Impact is ERC721Token, Ownable {\n\n    uint public xPixels;\n    uint public yPixels;\n    uint public minDonation;\n    string public metadataUri;\n\n    function Pixel4Impact(uint _xPixels, uint _yPixels, uint _minDonation, string _metadataUri) ERC721Token(\"Pixel4Impact\", \"P4I\") public { \n        xPixels = _xPixels;\n        yPixels = _yPixels;\n        minDonation = _minDonation;\n        metadataUri = _metadataUri;\n    }\n\n    struct Pixel {\n        uint x;\n        uint y;\n        string color;\n    }\n    \n    Pixel[] pixels;\n    mapping(uint => mapping(uint => bool)) pixelsTaken;\n    address[] donators;\n\n    \n    event PixelCreated(uint x, uint y, string color, uint donation, address contributor);\n\n    modifier tokenAvailable(uint x, uint y) {\n        require(!pixelsTaken[x][y]);\n        require(x < xPixels);\n        require(y < yPixels);\n        _;\n    }\n\n    modifier isMinDonation() {\n        require(msg.value >= minDonation);\n        _;\n    }\n\n\n    function donatePixel(uint _x, uint _y, string _color) public payable tokenAvailable(_x, _y) isMinDonation() {\n        uint256 newTokenId = _getNextTokenId();\n        _mint(msg.sender, newTokenId);\n        Pixel memory pixel = Pixel({\n            x: _x,\n            y: _y,\n            color: _color\n        });\n        pixels[newTokenId] = pixel;\n        pixelsTaken[_x][_y] = true;\n        donators.push(msg.sender);\n        owner.transfer(msg.value);\n    }\n\n    function _getNextTokenId() private view returns (uint256) {\n        return totalSupply();\n    }\n\n    function getDetails() public view returns(uint _xPixels, uint _yPixels, uint _minDonation, string _metadataUri) {\n        return (uint(xPixels), uint(yPixels), minDonation, metadataUri);\n    }\n    function getNumPixelsTaken() public view returns(uint) {\n        return pixels.length;\n    }\n\n    function getPixelTakenByIndex(uint _index) public view returns(uint x, uint y, string color) {\n        Pixel storage pixel = pixels[_index];\n        return (pixel.x, pixel.y, pixel.color);\n    }\n\n    function getNumDonators() public view returns(uint) {\n        return donators.length;\n    }\n    function getDonatorAddressByIndex(uint _index) public view returns(address) {\n        return donators[_index];\n    }\n\n    function () external payable {\n        //TODO;\n    }\n}",
  "sourcePath": "/Users/joaoaguiam/Documents/Joao2017/Dev/pixel4impact/contracts/Pixel4Impact.sol",
  "compiler": {
    "name": "solc",
    "version": "0.4.21+commit.dfe3193c.Emscripten.clang"
  },
  "schemaVersion": "2.0.0",
  "updatedAt": "2018-05-10T04:29:30.306Z"
}