{
  "contractName": "Pixel4Impact",
  "abi": [
    {
      "constant": true,
      "inputs": [],
      "name": "name",
      "outputs": [
        {
          "name": "",
          "type": "string"
        }
      ],
      "payable": false,
      "stateMutability": "view",
      "type": "function"
    },
    {
      "constant": true,
      "inputs": [
        {
          "name": "_tokenId",
          "type": "uint256"
        }
      ],
      "name": "getApproved",
      "outputs": [
        {
          "name": "",
          "type": "address"
        }
      ],
      "payable": false,
      "stateMutability": "view",
      "type": "function"
    },
    {
      "constant": false,
      "inputs": [
        {
          "name": "_to",
          "type": "address"
        },
        {
          "name": "_tokenId",
          "type": "uint256"
        }
      ],
      "name": "approve",
      "outputs": [],
      "payable": false,
      "stateMutability": "nonpayable",
      "type": "function"
    },
    {
      "constant": true,
      "inputs": [],
      "name": "totalSupply",
      "outputs": [
        {
          "name": "",
          "type": "uint256"
        }
      ],
      "payable": false,
      "stateMutability": "view",
      "type": "function"
    },
    {
      "constant": true,
      "inputs": [],
      "name": "minDonation",
      "outputs": [
        {
          "name": "",
          "type": "uint256"
        }
      ],
      "payable": false,
      "stateMutability": "view",
      "type": "function"
    },
    {
      "constant": false,
      "inputs": [
        {
          "name": "_from",
          "type": "address"
        },
        {
          "name": "_to",
          "type": "address"
        },
        {
          "name": "_tokenId",
          "type": "uint256"
        }
      ],
      "name": "transferFrom",
      "outputs": [],
      "payable": false,
      "stateMutability": "nonpayable",
      "type": "function"
    },
    {
      "constant": true,
      "inputs": [
        {
          "name": "_owner",
          "type": "address"
        },
        {
          "name": "_index",
          "type": "uint256"
        }
      ],
      "name": "tokenOfOwnerByIndex",
      "outputs": [
        {
          "name": "",
          "type": "uint256"
        }
      ],
      "payable": false,
      "stateMutability": "view",
      "type": "function"
    },
    {
      "constant": false,
      "inputs": [
        {
          "name": "_from",
          "type": "address"
        },
        {
          "name": "_to",
          "type": "address"
        },
        {
          "name": "_tokenId",
          "type": "uint256"
        }
      ],
      "name": "safeTransferFrom",
      "outputs": [],
      "payable": false,
      "stateMutability": "nonpayable",
      "type": "function"
    },
    {
      "constant": true,
      "inputs": [
        {
          "name": "_tokenId",
          "type": "uint256"
        }
      ],
      "name": "exists",
      "outputs": [
        {
          "name": "",
          "type": "bool"
        }
      ],
      "payable": false,
      "stateMutability": "view",
      "type": "function"
    },
    {
      "constant": true,
      "inputs": [
        {
          "name": "_index",
          "type": "uint256"
        }
      ],
      "name": "tokenByIndex",
      "outputs": [
        {
          "name": "",
          "type": "uint256"
        }
      ],
      "payable": false,
      "stateMutability": "view",
      "type": "function"
    },
    {
      "constant": true,
      "inputs": [
        {
          "name": "_tokenId",
          "type": "uint256"
        }
      ],
      "name": "ownerOf",
      "outputs": [
        {
          "name": "",
          "type": "address"
        }
      ],
      "payable": false,
      "stateMutability": "view",
      "type": "function"
    },
    {
      "constant": true,
      "inputs": [],
      "name": "yPixels",
      "outputs": [
        {
          "name": "",
          "type": "uint256"
        }
      ],
      "payable": false,
      "stateMutability": "view",
      "type": "function"
    },
    {
      "constant": true,
      "inputs": [
        {
          "name": "_owner",
          "type": "address"
        }
      ],
      "name": "balanceOf",
      "outputs": [
        {
          "name": "",
          "type": "uint256"
        }
      ],
      "payable": false,
      "stateMutability": "view",
      "type": "function"
    },
    {
      "constant": true,
      "inputs": [],
      "name": "metadataUri",
      "outputs": [
        {
          "name": "",
          "type": "string"
        }
      ],
      "payable": false,
      "stateMutability": "view",
      "type": "function"
    },
    {
      "constant": true,
      "inputs": [],
      "name": "owner",
      "outputs": [
        {
          "name": "",
          "type": "address"
        }
      ],
      "payable": false,
      "stateMutability": "view",
      "type": "function"
    },
    {
      "constant": true,
      "inputs": [],
      "name": "symbol",
      "outputs": [
        {
          "name": "",
          "type": "string"
        }
      ],
      "payable": false,
      "stateMutability": "view",
      "type": "function"
    },
    {
      "constant": false,
      "inputs": [
        {
          "name": "_to",
          "type": "address"
        },
        {
          "name": "_approved",
          "type": "bool"
        }
      ],
      "name": "setApprovalForAll",
      "outputs": [],
      "payable": false,
      "stateMutability": "nonpayable",
      "type": "function"
    },
    {
      "constant": false,
      "inputs": [
        {
          "name": "_from",
          "type": "address"
        },
        {
          "name": "_to",
          "type": "address"
        },
        {
          "name": "_tokenId",
          "type": "uint256"
        },
        {
          "name": "_data",
          "type": "bytes"
        }
      ],
      "name": "safeTransferFrom",
      "outputs": [],
      "payable": false,
      "stateMutability": "nonpayable",
      "type": "function"
    },
    {
      "constant": true,
      "inputs": [
        {
          "name": "_tokenId",
          "type": "uint256"
        }
      ],
      "name": "tokenURI",
      "outputs": [
        {
          "name": "",
          "type": "string"
        }
      ],
      "payable": false,
      "stateMutability": "view",
      "type": "function"
    },
    {
      "constant": true,
      "inputs": [],
      "name": "xPixels",
      "outputs": [
        {
          "name": "",
          "type": "uint256"
        }
      ],
      "payable": false,
      "stateMutability": "view",
      "type": "function"
    },
    {
      "constant": true,
      "inputs": [
        {
          "name": "_owner",
          "type": "address"
        },
        {
          "name": "_operator",
          "type": "address"
        }
      ],
      "name": "isApprovedForAll",
      "outputs": [
        {
          "name": "",
          "type": "bool"
        }
      ],
      "payable": false,
      "stateMutability": "view",
      "type": "function"
    },
    {
      "constant": false,
      "inputs": [
        {
          "name": "newOwner",
          "type": "address"
        }
      ],
      "name": "transferOwnership",
      "outputs": [],
      "payable": false,
      "stateMutability": "nonpayable",
      "type": "function"
    },
    {
      "inputs": [
        {
          "name": "_xPixels",
          "type": "uint256"
        },
        {
          "name": "_yPixels",
          "type": "uint256"
        },
        {
          "name": "_minDonation",
          "type": "uint256"
        },
        {
          "name": "_metadataUri",
          "type": "string"
        }
      ],
      "payable": false,
      "stateMutability": "nonpayable",
      "type": "constructor"
    },
    {
      "payable": true,
      "stateMutability": "payable",
      "type": "fallback"
    },
    {
      "anonymous": false,
      "inputs": [
        {
          "indexed": false,
          "name": "x",
          "type": "uint256"
        },
        {
          "indexed": false,
          "name": "y",
          "type": "uint256"
        },
        {
          "indexed": false,
          "name": "color",
          "type": "string"
        },
        {
          "indexed": false,
          "name": "donation",
          "type": "uint256"
        },
        {
          "indexed": false,
          "name": "contributor",
          "type": "address"
        }
      ],
      "name": "PixelCreated",
      "type": "event"
    },
    {
      "anonymous": false,
      "inputs": [
        {
          "indexed": false,
          "name": "value",
          "type": "string"
        }
      ],
      "name": "DebugStr",
      "type": "event"
    },
    {
      "anonymous": false,
      "inputs": [
        {
          "indexed": false,
          "name": "value",
          "type": "uint256"
        }
      ],
      "name": "DebugInt",
      "type": "event"
    },
    {
      "anonymous": false,
      "inputs": [
        {
          "indexed": true,
          "name": "previousOwner",
          "type": "address"
        },
        {
          "indexed": true,
          "name": "newOwner",
          "type": "address"
        }
      ],
      "name": "OwnershipTransferred",
      "type": "event"
    },
    {
      "anonymous": false,
      "inputs": [
        {
          "indexed": true,
          "name": "_from",
          "type": "address"
        },
        {
          "indexed": true,
          "name": "_to",
          "type": "address"
        },
        {
          "indexed": false,
          "name": "_tokenId",
          "type": "uint256"
        }
      ],
      "name": "Transfer",
      "type": "event"
    },
    {
      "anonymous": false,
      "inputs": [
        {
          "indexed": true,
          "name": "_owner",
          "type": "address"
        },
        {
          "indexed": true,
          "name": "_approved",
          "type": "address"
        },
        {
          "indexed": false,
          "name": "_tokenId",
          "type": "uint256"
        }
      ],
      "name": "Approval",
      "type": "event"
    },
    {
      "anonymous": false,
      "inputs": [
        {
          "indexed": true,
          "name": "_owner",
          "type": "address"
        },
        {
          "indexed": true,
          "name": "_operator",
          "type": "address"
        },
        {
          "indexed": false,
          "name": "_approved",
          "type": "bool"
        }
      ],
      "name": "ApprovalForAll",
      "type": "event"
    },
    {
      "constant": false,
      "inputs": [
        {
          "name": "_x",
          "type": "uint256"
        },
        {
          "name": "_y",
          "type": "uint256"
        },
        {
          "name": "_color",
          "type": "string"
        }
      ],
      "name": "donatePixel",
      "outputs": [],
      "payable": true,
      "stateMutability": "payable",
      "type": "function"
    },
    {
      "constant": true,
      "inputs": [],
      "name": "getDetails",
      "outputs": [
        {
          "name": "_xPixels",
          "type": "uint256"
        },
        {
          "name": "_yPixels",
          "type": "uint256"
        },
        {
          "name": "_minDonation",
          "type": "uint256"
        },
        {
          "name": "_metadataUri",
          "type": "string"
        }
      ],
      "payable": false,
      "stateMutability": "view",
      "type": "function"
    },
    {
      "constant": true,
      "inputs": [],
      "name": "getNumPixelsTaken",
      "outputs": [
        {
          "name": "",
          "type": "uint256"
        }
      ],
      "payable": false,
      "stateMutability": "view",
      "type": "function"
    },
    {
      "constant": true,
      "inputs": [
        {
          "name": "_index",
          "type": "uint256"
        }
      ],
      "name": "getPixelTakenByIndex",
      "outputs": [
        {
          "name": "x",
          "type": "uint256"
        },
        {
          "name": "y",
          "type": "uint256"
        },
        {
          "name": "color",
          "type": "string"
        },
        {
          "name": "donation",
          "type": "uint256"
        }
      ],
      "payable": false,
      "stateMutability": "view",
      "type": "function"
    },
    {
      "constant": true,
      "inputs": [],
      "name": "getNumDonators",
      "outputs": [
        {
          "name": "",
          "type": "uint256"
        }
      ],
      "payable": false,
      "stateMutability": "view",
      "type": "function"
    },
    {
      "constant": true,
      "inputs": [
        {
          "name": "_index",
          "type": "uint256"
        }
      ],
      "name": "getDonatorAddressByIndex",
      "outputs": [
        {
          "name": "",
          "type": "address"
        }
      ],
      "payable": false,
      "stateMutability": "view",
      "type": "function"
    }
  ],
  "bytecode": "0x606060405234156200001057600080fd5b60405162001bdd38038062001bdd833981016040528080519190602001805191906020018051919060200180519091019050604080519081016040908152600c82527f506978656c34496d70616374000000000000000000000000000000000000000060208301528051908101604052600381527f503449000000000000000000000000000000000000000000000000000000000060208201526004828051620000bf92916020019062000122565b506005818051620000d592916020019062000122565b5050600b8054600160a060020a03191633600160a060020a031617905550600c849055600d839055600e829055600f8180516200011792916020019062000122565b5050505050620001c7565b828054600181600116156101000203166002900490600052602060002090601f016020900481019282601f106200016557805160ff191683800117855562000195565b8280016001018555821562000195579182015b828111156200019557825182559160200191906001019062000178565b50620001a3929150620001a7565b5090565b620001c491905b80821115620001a35760008155600101620001ae565b90565b611a0680620001d76000396000f3006060604052600436106101695763ffffffff7c010000000000000000000000000000000000000000000000000000000060003504166306fdde03811461016b578063081812fc146101f5578063095ea7b31461022757806318160ddd146102495780631c0e02251461026e57806323b872dd146102815780632f745c59146102a95780633a1c6aee146102cb57806342842e0e1461031c5780634f558e79146103445780634f6ccce71461036e5780636352211e146103845780636c2d1c3a1461039a57806370a08231146103ad57806377a4d559146103cc57806380513201146103df5780638da5cb5b146103f5578063956da0141461040857806395d89b411461041b578063a22cb4651461042e578063b88d4fde14610452578063c87b56dd146104be578063cf9b50bf146104d4578063d009c53f146104e7578063e5cc7e0d146104fa578063e985e9c51461059d578063f2fde38b146105c2578063fbbf93a0146105e1575b005b341561017657600080fd5b61017e610642565b60405160208082528190810183818151815260200191508051906020019080838360005b838110156101ba5780820151838201526020016101a2565b50505050905090810190601f1680156101e75780820380516001836020036101000a031916815260200191505b509250505060405180910390f35b341561020057600080fd5b61020b6004356106eb565b604051600160a060020a03909116815260200160405180910390f35b341561023257600080fd5b610169600160a060020a0360043516602435610706565b341561025457600080fd5b61025c610802565b60405190815260200160405180910390f35b341561027957600080fd5b61025c610808565b341561028c57600080fd5b610169600160a060020a036004358116906024351660443561080e565b34156102b457600080fd5b61025c600160a060020a03600435166024356108b9565b610169600480359060248035919060649060443590810190830135806020601f8201819004810201604051908101604052818152929190602084018383808284375094965061090795505050505050565b341561032757600080fd5b610169600160a060020a0360043581169060243516604435610bd1565b341561034f57600080fd5b61035a600435610c07565b604051901515815260200160405180910390f35b341561037957600080fd5b61025c600435610c24565b341561038f57600080fd5b61020b600435610c5a565b34156103a557600080fd5b61025c610c84565b34156103b857600080fd5b61025c600160a060020a0360043516610c8a565b34156103d757600080fd5b61017e610cbd565b34156103ea57600080fd5b61020b600435610d5b565b341561040057600080fd5b61020b610d87565b341561041357600080fd5b61025c610d96565b341561042657600080fd5b61017e610d9c565b341561043957600080fd5b610169600160a060020a03600435166024351515610e0f565b341561045d57600080fd5b610169600160a060020a036004803582169160248035909116916044359160849060643590810190830135806020601f82018190048102016040519081016040528181529291906020840183838082843750949650610ea095505050505050565b34156104c957600080fd5b61017e600435610edf565b34156104df57600080fd5b61025c610fae565b34156104f257600080fd5b61025c610fb4565b341561050557600080fd5b610510600435610fba565b6040518085815260200184815260200180602001838152602001828103825284818151815260200191508051906020019080838360005b8381101561055f578082015183820152602001610547565b50505050905090810190601f16801561058c5780820380516001836020036101000a031916815260200191505b509550505050505060405180910390f35b34156105a857600080fd5b61035a600160a060020a03600435811690602435166110a6565b34156105cd57600080fd5b610169600160a060020a03600435166110d4565b34156105ec57600080fd5b6105f461116f565b6040518085815260200184815260200183815260200180602001828103825283818151815260200191508051906020019080838360008381101561055f578082015183820152602001610547565b61064a611833565b60048054600181600116156101000203166002900480601f0160208091040260200160405190810160405280929190818152602001828054600181600116156101000203166002900480156106e05780601f106106b5576101008083540402835291602001916106e0565b820191906000526020600020905b8154815290600101906020018083116106c357829003601f168201915b505050505090505b90565b600090815260016020526040902054600160a060020a031690565b600061071182610c5a565b9050600160a060020a03838116908216141561072c57600080fd5b80600160a060020a031633600160a060020a03161480610751575061075181336110a6565b151561075c57600080fd5b6000610767836106eb565b600160a060020a03161415806107855750600160a060020a03831615155b156107fd5760008281526001602052604090819020805473ffffffffffffffffffffffffffffffffffffffff1916600160a060020a0386811691821790925591908316907f8c5be1e5ebec7d5bd14f71427d1e84f3dd0314c0f7b2291e5b200ac8c7c3b9259085905190815260200160405180910390a35b505050565b60085490565b600e5481565b806108193382611231565b151561082457600080fd5b600160a060020a038416151561083957600080fd5b600160a060020a038316151561084e57600080fd5b6108588483611290565b6108628483611340565b61086c838361146e565b82600160a060020a031684600160a060020a03167fddf252ad1be2c89b69c2b068fc378daa952ba7f163c4a11628f55a4df523b3ef8460405190815260200160405180910390a350505050565b60006108c483610c8a565b82106108cf57600080fd5b600160a060020a03831660009081526006602052604090208054839081106108f357fe5b906000526020600020900154905092915050565b6000610911611845565b60008581526011602090815260408083208784529091529020548590859060ff161561093c57600080fd5b600c54821061094a57600080fd5b600d54811061095857600080fd5b600e5434101561096757600080fd5b7f66adb6b61689eb20abb744cb25721504c5861b418a77988e230daee31f7187e28760405190815260200160405180910390a17f66adb6b61689eb20abb744cb25721504c5861b418a77988e230daee31f7187e28660405190815260200160405180910390a17fbeec2b037dad1d174192cfe357f7f7cafa04d5d6712c3cdd3b636ca22e61af478560405160208082528190810183818151815260200191508051906020019080838360005b83811015610a2b578082015183820152602001610a13565b50505050905090810190601f168015610a585780820380516001836020036101000a031916815260200191505b509250505060405180910390a17f66adb6b61689eb20abb744cb25721504c5861b418a77988e230daee31f7187e23460405190815260200160405180910390a1610aa06114c8565b9350610aac33856114d7565b60806040519081016040528088815260200187815260200186815260200134815250925060108054806001018281610ae49190611874565b600092835260209092208591600402018151815560208201518160010155604082015181600201908051610b1c9291602001906118a0565b506060820151600390910155505060008781526011602090815260408083208984529091529020805460ff191660019081179091556012805490918101610b63838261191e565b5060009182526020909120018054600160a060020a0333811673ffffffffffffffffffffffffffffffffffffffff1990921691909117909155600b54163480156108fc0290604051600060405180830381858888f193505050501515610bc857600080fd5b50505050505050565b80610bdc3382611231565b1515610be757600080fd5b610c01848484602060405190810160405260008152610ea0565b50505050565b600090815260208190526040902054600160a060020a0316151590565b6000610c2e610802565b8210610c3957600080fd5b6008805483908110610c4757fe5b9060005260206000209001549050919050565b600081815260208190526040812054600160a060020a0316801515610c7e57600080fd5b92915050565b600d5481565b6000600160a060020a0382161515610ca157600080fd5b50600160a060020a031660009081526002602052604090205490565b600f8054600181600116156101000203166002900480601f016020809104026020016040519081016040528092919081815260200182805460018160011615610100020316600290048015610d535780601f10610d2857610100808354040283529160200191610d53565b820191906000526020600020905b815481529060010190602001808311610d3657829003601f168201915b505050505081565b6000601282815481101515610d6c57fe5b600091825260209091200154600160a060020a031692915050565b600b54600160a060020a031681565b60105490565b610da4611833565b60058054600181600116156101000203166002900480601f0160208091040260200160405190810160405280929190818152602001828054600181600116156101000203166002900480156106e05780601f106106b5576101008083540402835291602001916106e0565b33600160a060020a031682600160a060020a031614151515610e3057600080fd5b33600160a060020a0390811660008181526003602090815260408083209487168084529490915290819020805460ff19168515151790557f17307eab39ab6107e8899845ad3d59bd9653f200f220920489ca2b5937696c3190849051901515815260200160405180910390a35050565b81610eab3382611231565b1515610eb657600080fd5b610ec185858561080e565b610ecd85858585611514565b1515610ed857600080fd5b5050505050565b610ee7611833565b610ef082610c07565b1515610efb57600080fd5b600a60008381526020019081526020016000208054600181600116156101000203166002900480601f016020809104026020016040519081016040528092919081815260200182805460018160011615610100020316600290048015610fa25780601f10610f7757610100808354040283529160200191610fa2565b820191906000526020600020905b815481529060010190602001808311610f8557829003601f168201915b50505050509050919050565b600c5481565b60125490565b600080610fc5611833565b600080601086815481101515610fd757fe5b9060005260206000209060040201905080600001548160010154826002018360030154818054600181600116156101000203166002900480601f01602080910402602001604051908101604052809291908181526020018280546001816001161561010002031660029004801561108f5780601f106110645761010080835404028352916020019161108f565b820191906000526020600020905b81548152906001019060200180831161107257829003601f168201915b505050505091509450945094509450509193509193565b600160a060020a03918216600090815260036020908152604080832093909416825291909152205460ff1690565b600b5433600160a060020a039081169116146110ef57600080fd5b600160a060020a038116151561110457600080fd5b600b54600160a060020a0380831691167f8be0079c531659141344cd1fd0a4f28419497f9722a3daafe3b4186f6b6457e060405160405180910390a3600b805473ffffffffffffffffffffffffffffffffffffffff1916600160a060020a0392909216919091179055565b600080600061117c611833565b600c54600d54600e54600f808054600181600116156101000203166002900480601f01602080910402602001604051908101604052809291908181526020018280546001816001161561010002031660029004801561121c5780601f106111f15761010080835404028352916020019161121c565b820191906000526020600020905b8154815290600101906020018083116111ff57829003601f168201915b50505050509050935093509350935090919293565b60008061123d83610c5a565b905080600160a060020a031684600160a060020a03161480611278575083600160a060020a031661126d846106eb565b600160a060020a0316145b80611288575061128881856110a6565b949350505050565b81600160a060020a03166112a382610c5a565b600160a060020a0316146112b657600080fd5b600081815260016020526040902054600160a060020a03161561133c57600081815260016020526040808220805473ffffffffffffffffffffffffffffffffffffffff19169055600160a060020a038416907f8c5be1e5ebec7d5bd14f71427d1e84f3dd0314c0f7b2291e5b200ac8c7c3b9259084905190815260200160405180910390a35b5050565b600080600061134f8585611686565b600084815260076020908152604080832054600160a060020a038916845260069092529091205490935061138a90600163ffffffff61171b16565b600160a060020a0386166000908152600660205260409020805491935090839081106113b257fe5b6000918252602080832090910154600160a060020a03881683526006909152604090912080549192508291859081106113e757fe5b6000918252602080832090910192909255600160a060020a038716815260069091526040812080548490811061141957fe5b6000918252602080832090910192909255600160a060020a038716815260069091526040902080549061145090600019830161191e565b50600093845260076020526040808520859055908452909220555050565b600061147a838361172d565b50600160a060020a038216600090815260066020526040902080549081600181016114a5838261191e565b506000918252602080832091909101849055928152600790925260409091205550565b60006114d2610802565b905090565b6114e182826117bc565b60088054600083815260096020526040902081905560018101611504838261191e565b5060009182526020909120015550565b60008061152985600160a060020a031661181e565b1515611538576001915061167d565b84600160a060020a031663f0b9e5ba8786866040518463ffffffff167c01000000000000000000000000000000000000000000000000000000000281526004018084600160a060020a0316600160a060020a0316815260200183815260200180602001828103825283818151815260200191508051906020019080838360005b838110156115d05780820151838201526020016115b8565b50505050905090810190601f1680156115fd5780820380516001836020036101000a031916815260200191505b50945050505050602060405180830381600087803b151561161d57600080fd5b5af1151561162a57600080fd5b50505060405180517fffffffff0000000000000000000000000000000000000000000000000000000081167ff0b9e5ba000000000000000000000000000000000000000000000000000000001493509150505b50949350505050565b81600160a060020a031661169982610c5a565b600160a060020a0316146116ac57600080fd5b600160a060020a0382166000908152600260205260409020546116d690600163ffffffff61171b16565b600160a060020a039092166000908152600260209081526040808320949094559181529081905220805473ffffffffffffffffffffffffffffffffffffffff19169055565b60008282111561172757fe5b50900390565b600081815260208190526040902054600160a060020a03161561174f57600080fd5b600081815260208181526040808320805473ffffffffffffffffffffffffffffffffffffffff1916600160a060020a0387169081179091558352600290915290205461179c906001611826565b600160a060020a0390921660009081526002602052604090209190915550565b600160a060020a03821615156117d157600080fd5b6117db828261146e565b600160a060020a03821660007fddf252ad1be2c89b69c2b068fc378daa952ba7f163c4a11628f55a4df523b3ef8360405190815260200160405180910390a35050565b6000903b1190565b81810182811015610c7e57fe5b60206040519081016040526000815290565b6080604051908101604052806000815260200160008152602001611867611833565b8152602001600081525090565b8154818355818115116107fd576004028160040283600052602060002091820191016107fd9190611942565b828054600181600116156101000203166002900490600052602060002090601f016020900481019282601f106118e157805160ff191683800117855561190e565b8280016001018555821561190e579182015b8281111561190e5782518255916020019190600101906118f3565b5061191a929150611979565b5090565b8154818355818115116107fd576000838152602090206107fd918101908301611979565b6106e891905b8082111561191a576000808255600182018190556119696002830182611993565b5060006003820155600401611948565b6106e891905b8082111561191a576000815560010161197f565b50805460018160011615610100020316600290046000825580601f106119b957506119d7565b601f0160209004906000526020600020908101906119d79190611979565b505600a165627a7a723058201f7d6ba14f031c181f0e45f92d7ed4870050abe8bbf18d68c5d56dd643fc4f540029",
  "source": "pragma solidity ^0.4.21;\n\nimport \"../node_modules/zeppelin-solidity/contracts/ownership/Ownable.sol\";\nimport \"../node_modules/zeppelin-solidity/contracts/token/ERC721/ERC721Token.sol\";\n\ncontract Pixel4Impact is ERC721Token, Ownable {\n\n    uint public xPixels;\n    uint public yPixels;\n    uint public minDonation;\n    string public metadataUri;\n\n\n    function Pixel4Impact(uint _xPixels, uint _yPixels, uint _minDonation, string _metadataUri) ERC721Token(\"Pixel4Impact\", \"P4I\") public { \n        xPixels = _xPixels;\n        yPixels = _yPixels;\n        minDonation = _minDonation;\n        metadataUri = _metadataUri;\n    }\n\n    struct Pixel {\n        uint x;\n        uint y;\n        string color;\n        uint donation;\n    }\n    \n    Pixel[] pixels;\n    mapping(uint => mapping(uint => bool)) pixelsTaken;\n    address[] donators;\n\n    \n    event PixelCreated(uint x, uint y, string color, uint donation, address contributor);\n    event DebugStr(string value);\n    event DebugInt(uint value);\n\n    modifier tokenAvailable(uint x, uint y) {\n        require(!pixelsTaken[x][y]);\n        require(x < xPixels);\n        require(y < yPixels);\n        _;\n    }\n\n    modifier isMinDonation() {\n        require(msg.value >= minDonation);\n        _;\n    }\n\n\n    function donatePixel(uint _x, uint _y, string _color) public payable tokenAvailable(_x, _y) isMinDonation() {\n        emit DebugInt(_x);\n        emit DebugInt(_y);\n        emit DebugStr(_color);\n        emit DebugInt(msg.value);\n        uint256 newTokenId = _getNextTokenId();\n        _mint(msg.sender, newTokenId);\n        Pixel memory pixel = Pixel({\n            x: _x,\n            y: _y,\n            color: _color,\n            donation: msg.value\n        });\n        pixels.push(pixel);\n        pixelsTaken[_x][_y] = true;\n        donators.push(msg.sender);\n        owner.transfer(msg.value);\n    }\n\n    function _getNextTokenId() private view returns (uint256) {\n        return totalSupply();\n    }\n\n    function getDetails() public view returns(uint _xPixels, uint _yPixels, uint _minDonation, string _metadataUri) {\n        return (uint(xPixels), uint(yPixels), minDonation, metadataUri);\n    }\n    function getNumPixelsTaken() public view returns(uint) {\n        return pixels.length;\n    }\n\n    function getPixelTakenByIndex(uint _index) public view returns(uint x, uint y, string color, uint donation) {\n        Pixel storage pixel = pixels[_index];\n        return (pixel.x, pixel.y, pixel.color, pixel.donation);\n    }\n\n    function getNumDonators() public view returns(uint) {\n        return donators.length;\n    }\n    function getDonatorAddressByIndex(uint _index) public view returns(address) {\n        return donators[_index];\n    }\n\n    function () external payable {\n        //TODO;\n    }\n}",
  "sourcePath": "/Users/joaoaguiam/Documents/Joao2017/Dev/pixel4impact/contracts/Pixel4Impact.sol",
  "compiler": {
    "name": "solc",
    "version": "0.4.21+commit.dfe3193c.Emscripten.clang"
  },
  "schemaVersion": "2.0.0",
  "updatedAt": "2018-05-16T03:12:23.300Z"
}